:020000040800F2
:10000000A0050020AD010008B71D0008DD1A00089A
:10001000B51D00089D040008A7230008000000008B
:100020000000000000000000000000004F20000859
:100030009505000800000000B91D000851200008C7
:10004000C7010008C7010008C7010008C701000870
:10005000C7010008C7010008C7010008C701000860
:1000600099050008C7010008C7010008A10400089D
:10007000C7010008C7010008C7010008C701000840
:10008000C7010008C7010008C70100080000000000
:10009000000000000000000000000000C701000890
:1000A000C7010008C7010008C7010008C701000810
:1000B000C70100082D210008C7010008C70100087A
:1000C000C7010008C7010008C7010008C7010008F0
:1000D000C7010008C7010008C701000800000000B0
:1000E000C7010008C7010008C701000800000000A0
:1000F000000000000000000000000000C701000830
:1001000000000000C7010008C7010008591E0008D0
:1001100000000000000000000000000000000000DF
:10012000C7010008C7010008C7010008C70100088F
:10013000C7010008000000000000000000000000EF
:10014000000000000000000000000000C7010008DF
:10015000C7010008C7010008C7010008C70100085F
:10016000C7010008C70100080000000000000000EF
:10017000000000000000000000000000000000007F
:1001800000000000C701000800000000000000009F
:10019000C7010008C7010008DFF80CD000F06CF9B7
:1001A00000480047DD260008A005002006488047DB
:1001B00006480047FEE7FEE7FEE7FEE7FEE7FEE74C
:1001C000FEE7FEE7FEE7FEE7D920000899010008F8
:1001D0002DE9F05F0546002092469B46884606467C
:1001E000814640241BE0284641464746224600F00F
:1001F000D6F853465A46C01A914110D311461846B4
:10020000224600F0BDF82D1A67EB01084F46224642
:100210000120002100F0B4F817EB00094E41201E28
:10022000A4F10104DFDC484631462A464346BDE8D6
:10023000F09FD2B201E000F8012B491EFBD27047BB
:100240000022F6E710B513460A4604461946FFF7A2
:10025000F0FF204610BD2DE9F04D81EA030404F0C3
:10026000004B21F0004514464FF0000A23F00041F6
:1002700050EA050220D054EA01021DD0C5F30A5706
:100280000246C5F31303C1F31300C1F30A5640F449
:10029000801543F48013A7EB0608101BD64608F21E
:1002A000FD3873EB050002D308F1010801E0921854
:1002B0005B41B8F1000F03DA00200146BDE8F08D84
:1002C00000204FF48011064684460EE0171B73EBA6
:1002D000050705D3121B63EB050306434CEA010C2B
:1002E00049084FEA300092185B4150EA0107EDD10E
:1002F00052EA030012D082EA040083EA05010843AF
:1003000005D0101BAB4106D20122002306E00022DB
:100310004FF0004302E06FF0010253101AEB0600A9
:100320004CEB085110EB0A0041EB0B01BDE8F04D1E
:1003300000F045B80EB540F2334102910021CDE9FD
:1003400000110A460B4600F049F803B000BDC1F3A6
:100350000A5210B5C1F3130140F2FF3341F480118A
:100360009A4201DA002010BD40F233439A42A2F2D1
:10037000334203DC524200F012F810BD904010BD31
:10038000202A04DB203A00FA02F100207047914055
:10039000C2F1200320FA03F3194390407047202A4A
:1003A00004DB203A21FA02F00021704721FA02F31F
:1003B000D040C2F12002914008431946704710B561
:1003C000141E73F1000408DA401C41F10001921878
:1003D0005B411A4301D120F0010010BD2DE9F04D21
:1003E00092469B4611B1B1FA81F202E0B0FA80F276
:1003F00020329046FFF7C4FF04460F4640EA0A0049
:1004000041EA0B0153465A46084313D0114653EABA
:10041000010019D0C8F140025046FFF7C0FF054661
:100420000E46504659464246FFF7AAFF084305D0FC
:10043000012004E020463946BDE8F08D0020054348
:1004400046EAE0762C4337430A986305E40AA0EBBA
:1004500008000022FD0A44EA47540A3002D5002071
:100460000146E9E7010510196941DDE90845001970
:100470006941BDE8F04DA2E7064C074D06E0E06893
:1004800040F0010394E8070098471034AC42F6D3DB
:10049000FFF786FED8280008F8280008FEE70000CD
:1004A000014800F09FB800003C01002001681823BB
:1004B000CAB2103AB2FBF3F2054B6FF30901032AFB
:1004C0009B5CC36500D9091D816508467047000023
:1004D000BE28000810B5014600208B698A6A4FF0DB
:1004E000C07453B1B3F5005F15D072B1012A0CD0BE
:1004F000022A0AD0032A09D104E01AB1012A06D03F
:10050000022A03D1C96AC90100D5012010BDC96AF8
:10051000A142FAD010BD002AF7D0012AF2D0022A57
:10052000F3D0032AF3D010BD30B50468256825F454
:1005300080252560046863608368402B036803D0CE
:1005400099600068C26030BD9A600068C16030BDCB
:100550000E48016821F080710160016841F08071EE
:1005600001600B48016821F001010160016841F060
:10057000010101600021416000BF00BF00BF406871
:1005800008B100207047012070470000FCED00E03A
:10059000001000E07047000010B50421054800F08D
:1005A00081FA00B1012004490870BDE81040042020
:1005B00000F0A2B90000024000000020704790F84F
:1005C0003510022903D080214165012070470521A3
:1005D00080F835100068016821F0010101600020F9
:1005E000704700002DE9F84304464FF00009CDF8AC
:1005F000009063484FF41651A56D0068B0FBF1F709
:100600002E6894F85C20082101FA02F030420FD0E5
:100610002068026852070BD5026822F004020260CB
:1006200094F85C008140A960606D40F00100606555
:1006300094F85C104FF0010808FA01F0304208D03D
:1006400021684969090604D5A860606D40F0020080
:10065000606594F85C1004208840304208D021681E
:100660000968890704D5A860606D40F004006065E2
:1006700094F85C1010208840304218D02168096836
:10068000090714D5A86020680168490304D50068EB
:10069000000308D5A16C07E00168C90503D401680F
:1006A00021F008010160216C09B12046884794F8C7
:1006B0005C1020208840304231D021680968C9068A
:1006C0002DD5A86094F8350005282068016806D06B
:1006D000490347D5006800031DD4616C1CE021F07C
:1006E000160101602068416921F080014161206CA0
:1006F00008B9A06C20B12068016821F008010160F0
:1007000094F85C103F208840A86084F8349084F806
:100710003580216D1FE0E16B09B120468847606D8F
:1007200000282BD0606DC00714D0052084F8350058
:100730002068016821F0010101600098401C0090D0
:10074000B84203D820680068C007F6D184F8349016
:1007500084F83580E16C002910D001B02046BDE856
:10076000F04308470168C905D5D4016821F010019C
:10077000016084F8349084F83580CCE7BDE8F883D4
:10078000200000202DE9F041044600F095F90546CF
:100790005CB1002684F83460022084F835002068BB
:1007A000016821F0010101600DE00120BDE8F08148
:1007B00000F082F9401B052805D920206065032040
:1007C00084F83500F2E720680068C007F0D121689E
:1007D0000A6820480240D4E901031843D4E90335EC
:1007E0002B43184363691843A3691843E36918430B
:1007F000236A18431043626A042A03D1D4E90B2305
:100800001A431043086020684069656A20F00701B8
:1008100028460D43012704280CD1A06A0543E06A4D
:1008200040B12046FFF756FE20B14020606584F8B5
:100830003570BAE7206845612046FFF737FE94F827
:100840005C203F2191408160666584F8357000200E
:10085000ACE700003F8010F02DE9F0410446866DC2
:1008600090F83400002501280DD0012084F83400D0
:1008700094F835700020012F07D084F83400022549
:100880002846BDE8F0810220FBE7022784F8357096
:1008900060652046FFF748FE94F85C103F208840D2
:1008A000B0602068016841F016010160206841696C
:1008B00041F080014161206C20B12068016841F065
:1008C000080101602068016841F001010160D7E77B
:1008D00070B5044600F0F0F80546601C02D00448EC
:1008E0000078044400F0E8F8401BA042FAD370BD41
:1008F0001400002070470000044910B50A68024245
:1009000002D00860FFF7F6FF10BD0000143C014064
:100910002DE9F84FDFF86C91002209F1040A0AF181
:10092000040B4FF00F080BF1040E01260B689640E4
:100930003340B34271D14C68022C01D0122C11D13A
:10094000D40800EB84073D6A5407E40E08FA04FC5F
:1009500025EA0C05D1F810C00CFA04FC4CEA050C91
:10096000C7F820C007685400032591F804C0A540CB
:100970000CF0030CAF430CFA04FC4CEA070CC0F873
:1009800000C04F68012F05D0022F03D0112F01D0D6
:10099000122F11D18768D1F80CC0AF430CFA04FCB8
:1009A0004CEA070CC0F808C04768B7430E79C6F395
:1009B000001696403E434660C668AE438D68A5402B
:1009C0003543C5604C68E40056D52F4C256845F486
:1009D00080452560246822F0030504F480440094D7
:1009E0002A4C2E19D6F808789407250F08FA05F432
:1009F000A743274CA04201D1002415E0254CA0427A
:100A000001D1012410E0244CA04201D102240BE0CA
:100A1000224CA04202D1032406E02DE0204CA0424B
:100A200001D1042400E00724AC403C43C6F8084848
:100A3000D9F800404D464E689C43F60300D51C4350
:100A40002C60DAF8004055464E689C43B60300D54A
:100A50001C432C60DBF800405D464E689C43F60268
:100A600000D51C432C60DEF8004075464E689C4360
:100A7000B60200D51C432C60521C102AFFF455AF5F
:100A8000BDE8F88F003C014044380240003001408E
:100A9000000002400004024000080240000C024036
:100AA000001002400069084000D0012070470AB1E0
:100AB000816170470904FBE70148806870470000C6
:100AC0001400002002488168027811448160704758
:100AD000140000200B4810B5016841F4007101605A
:100AE000016841F480610160016841F48071016036
:100AF000032000F06FF8002000F006F800F024F862
:100B0000002010BD003C024070B50D4D04464FF46E
:100B10007A712878B1FBF0F00A490968B1FBF0F06E
:100B200000F006FD48B9102C07D200222146501EC5
:100B300000F030F800206C6070BD012070BD000036
:100B400014000020200000200A4808B5016841F484
:100B500080410160006800F4804000900548001F5B
:100B6000016841F080510160006800F08050009001
:100B700008BD000044380240002809DB00F01F02D5
:100B8000012191404009800000F1E020C0F80011EF
:100B900070470000F0B40E4B1B68C3F30223C3F18F
:100BA0000704042C00D904241D1D072D01D20023A5
:100BB00000E0DB1E012606FA04F56D1E0D409D4087
:100BC0009E40761E164045EA0601F0BC01F0ECBBE3
:100BD0000CED00E0064A00F0070110684FF6FF0335
:100BE000184040EA012003490843106070470000A4
:100BF0000CED00E00000FA052DE9F0470D46040079
:100C000065D0DFF81491D9F80000EFB200F00F00C2
:100C1000A84207D289F80070D9F8000000F00F0050
:100C2000A84254D120683D4E810712D5400703D514
:100C3000306840F4E05030602078000703D5306819
:100C400040F4604030603068A16820F0F000084354
:100C500030602078C0072DD03049606808390128FD
:100C600012D0022813D0032811D00968890700295F
:100C70002DDA316821F0030101433160FFF71CFFD9
:100C8000804641F2883A0EE009688903EFE7096877
:100C90008901ECE7FFF710FFA0EB0801514502D9ED
:100CA0000320BDE8F0873068616800F00C00B0EB0D
:100CB000810FEFD1D9F80010484601F00F01A94289
:100CC00007D90770006800F00F00A84201D001208A
:100CD000E7E72078400705D53068E16820F4E05068
:100CE000084330602078000706D53068216920F479
:100CF000604040EAC100306000F01CF83168084AEA
:100D0000C1F30311515CC840064908600020FFF799
:100D1000FBFE0020C5E70000003C0240083802400E
:100D2000C628000820000020014800687047000025
:100D300020000020154810B5006810F00C01144880
:100D400013D0431004290FD008290ED10F4C241FB3
:100D5000216801F03F022168490207D52068C0F3ED
:100D60008810A0FB030106E0184610BD2168C1F3FE
:100D70008811A1FB00010023FFF72AFA2168C1F3C3
:100D80000141491C4900B0FBF1F010BD0838024098
:100D90000024F4002DE9F84F040073D02078BD4DF5
:100DA000C00748D0BB4808300168C1F38101012960
:100DB00008D00068C0F3810002280AD1281D00680D
:100DC000400206D52868800335D560680028E4D045
:100DD00031E06068B0F5803F10D0B0F5A02F2868F2
:100DE00010D020F480302860286820F4802028600B
:100DF0006068A0B1FFF760FE06460CE0286840F48A
:100E00008030F4E740F480202860F7E7FFF754FED5
:100E1000801B642872D828688003F7D50BE0FFF7A1
:100E20004BFE064604E0FFF747FE801B6428F1D81E
:100E300028688003F7D42078DFF85C9280074FF0B1
:100E4000000A3ED593480830016811F00C0F09D014
:100E50000068C0F3810002280BD18E48001D006895
:100E6000400206D42868800715D5E068012809D11A
:100E700011E0E068B8B10120C9F80000FFF71CFEDE
:100E8000064605E003E1FFF717FE801B0228C1D8E4
:100E900028688007F7D52868216920F0F80040EA23
:100EA000C10028600DE0C9F800A0FFF705FE064666
:100EB00004E0FFF701FE801B02281FD82868800786
:100EC000F7D42078000722D5724F744960697437CF
:100ED00070B101200860FFF7EFFD064604E0FFF760
:100EE000EBFD801B022809D838688007F7D50EE093
:100EF000C1F800A0FFF7E0FD064605E081E0FFF73E
:100F0000DBFD801B02287CD838688007F7D4207866
:100F1000400769D5DFF87CB14FF000080BF1400BBA
:100F2000DBF80000C0000CD4DBF8001041F0805169
:100F3000CBF80010DBF800004FF0010800F0805003
:100F40000090574F3868C0050FD4386840F480705F
:100F50003860FFF7B1FD064604E0FFF7ADFD801BEA
:100F600002284ED83868C005F7D54A4FA0687037B8
:100F700001280FD00528386810D020F00100386013
:100F8000386820F004003860A068B0B1FFF794FD25
:100F900006460EE0386840F00100F4E740F0040037
:100FA0003860F7E7FFF788FD811B41F28830814206
:100FB00065D838688007F5D50DE0FFF77DFD06465A
:100FC00006E0FFF779FD811B41F28830814256D857
:100FD00038688007F5D4B8F1000F05D0DBF80010B1
:100FE00021F08051CBF80010A069C8B3294908311D
:100FF0000968C1F38101022949D00228504607D06F
:1010000000E03CE0C9F86000FFF756FD044639E017
:101010004F46C9F86000FFF74FFD064604E0FFF7B2
:101020004BFD801B02282AD828688001F7D4D4E918
:1010300007010843A16A1B4A490802EB0141626AA1
:1010400041EA8211084394F82C1040EA01611148EA
:10105000001D016001203866FFF72EFD044605E003
:1010600013E0FFF729FD001B022808D8286880013B
:10107000F7D50AE0FFF720FD001B022802D9032064
:10108000BDE8F88F28688001F4D40020F8E701203B
:10109000F6E700000038024000004742800E474259
:1010A000007000400000FFFF7047000038B5016885
:1010B00004464A688868C043430606D5C30704D17E
:1010C000D3435B0601D4216C05E0830708D4D343E6
:1010D0001B0605D4616C01B02046BDE830400847CE
:1010E000830603D5430601D5C30551D4D3439B06DC
:1010F0004ED443060AD494F85130032B49D0636D83
:1011000043F004036365CB688B680093830609D4BE
:10111000636D43F0010363658B6800930B6823F0F4
:1011200040030B60C00506D4606D40F008006065A8
:10113000206880680090606D002829D02068416890
:1011400021F0E0014160012084F85100900701D4B2
:10115000D00722D02068416821F003014160114D81
:10116000E06C40B10565E06CFFF729FA18B1606DDD
:1011700040F040006065A06C002809D00565A06CB7
:10118000FFF71DFA002803D0606D40F04000606555
:1011900038BDC8688868009038BD2046FFF784FFD6
:1011A00038BD0000651E000870B5040005D000259C
:1011B000A56294F8510010B106E0012070BD84F8DA
:1011C0005050204600F030F8022084F8510020688A
:1011D000016821F040010160D4E901010843D4E92C
:1011E00003121143084361690843218B01F4007124
:1011F0000843E1690843216A0843A16A084321685A
:101200000860A069042101EA1040616A084321686E
:1012100048602068C16921F40061C16165650120F1
:1012200084F85100002070BD2DE9F04186B00646DB
:1012300014216846FFF704F83149306888425CD1D0
:1012400030480025016841F40041016000682D49E3
:1012500000F4004010390590086840F00100086073
:10126000086800F001000590086840F0020008607E
:10127000086800F002000590086840F0040008606B
:101280000868022400F004000590102003274FF0A6
:1012900006088DE8B10169461B48FFF739FBE002FB
:1012A0008DE8B1000720049069461848FFF730FB2D
:1012B000F8028DE8B10169461548FFF729FB164C85
:1012C0001448C4E900050015A560C4E90350801066
:1012D0006561C4E90650256220466562FFF752FA4F
:1012E00008B1FFF76BF9F464002211463320A663BE
:1012F000FFF750FC3320FFF73FFC06B0BDE8F0815C
:10130000003C00404038024000000240000402401F
:1013100000080240106002403C0100202DE9F0412D
:10132000044600258068042318B96668B6F5827FF4
:101330000ED094F85060012E13D0012784F850701D
:1013400094F851C00026BCF1010F0DD002254FE0EA
:1013500084F851302046BDE8F04113460A4600F0BB
:1013600053B80220BDE8F08171B16AB184F8513000
:101370006665A163A287E28726646664A686E68620
:10138000B0F5004F02D006E0012531E02068016889
:1013900021F480410160E16C17480864E16C174852
:1013A000C863E16C1648C864E06C0665E38F216889
:1013B000A26B0C31E06CFFF74FFA38B1606D40F072
:1013C00010006065012584F8517011E02068016803
:1013D000490603D4016841F040010160206841687A
:1013E00041F0200141602068416841F00101416005
:1013F00084F850602846B5E7971E0008AB1E000829
:10140000751E0008704770472DE9F041044690F8BA
:101410005000002501280DD0012684F8506094F872
:1014200051000027D4F804C001280FD0BCF5827FFA
:101430000AD102E00220BDE8F081D4F808C0BCF176
:10144000000F01D1042801D0022560E049B342B366
:101450003BB394F85100042802D0052084F85100D1
:1014600067652163A386E386A263A387E387276476
:10147000676494F85100042815D0E16C264808648C
:101480002648E16CC863E16C2548C864E06C0765D8
:10149000E38F2168A26B0C31E06CFFF7DDF9E0B956
:1014A00006E0012533E0E16C1E4808641E48E8E7C9
:1014B0002068416841F001014160A06C0764A06CA4
:1014C000C763A06CC764A06C0765E38E2268216BBC
:1014D0000C32A06CFFF7C0F938B1606D40F010001D
:1014E0006065012584F8516011E0206801684906B3
:1014F00003D4016841F0400101602068416841F077
:10150000200141602068416841F00201416084F897
:10151000507028468FE70000A11E0008FF1E00083B
:10152000751E0008971E0008AB1E00087047704724
:1015300010B5401EB0F1807F01D3012010BD4FF0E7
:10154000E02460610F21601700F02EFF0020A061F1
:1015500007202061002010BD7047704710B590F83B
:101560003C20012A22D0012280F83C20CA688C68E5
:1015700022F4407222434C6822F4806222430C68B9
:1015800022F4006222430C6922F4805222434C6907
:1015900022F400522243C969002322F480420A4304
:1015A00001684A6480F83C30002010BD022010BD64
:1015B00070B590F83C20012A19D0012500F83C5F55
:1015C0000222427050F83C2C5368946823F0700655
:1015D0000B684968334324F080042143536050F87A
:1015E0003C2C9160457000210170084670BD0220BE
:1015F00070BD10B5040003D094F83D0010B107E0B1
:10160000012010BD002084F83C00204600F00CF8BA
:10161000022084F83D00211D206800F08DFD01208E
:1016200084F83D00002010BD08B5006816498842C6
:1016300006D11648016841F00101016000681EE012
:101640001249091FB0F1804F14D0114A904219D1AC
:10165000086840F0020008600868002200F00200FC
:10166000009011461D20FFF795FABDE808401D20A7
:10167000FFF782BA086840F001000860086800F0CF
:101680000100009008BD0000000001404438024005
:1016900000040040022180F83D1001688A6802F0D1
:1016A0000702062A03D00A6842F001020A600121FB
:1016B00080F83D10002070470168CA6842F00102BE
:1016C000CA600068816801F00701062903D001683B
:1016D00041F0010101600020704770B5044690F8A8
:1016E0003C00012817D0012584F83C50022084F8E2
:1016F0003D002068826822F0770222F47F428260F7
:101700000868502830D00DDC20284DD005DC98B377
:1017100010283BD148E0022070BD302844D040283A
:1017200034D139E0602828D0702806D0B0F5805F29
:101730002CD0B0F5005F29D10AE0CB68D1E90121B6
:10174000206800F052FD2068816841F0770109E0CF
:10175000CB68D1E90121206800F047FD206881684D
:1017600041F48041816011E0CA684968206800F056
:10177000F7FD5021206807E016E0CA684968206834
:1017800000F0FFFD6021206800F039FD84F83D5035
:10179000002084F83C0070BDCA684968206800F0E9
:1017A000DFFD40212068EFE7226801461046EBE7A5
:1017B000704770B50446006801694FF00005C943E1
:1017C000890715D4C168C943890711D4E91E01618D
:1017D00001202077206880698007204602D0FFF72B
:1017E000E7FF04E000F0D6F8204600F058F925772E
:1017F00020680169C943490717D4C168C94349072B
:1018000013D46FF004010161022020772068806901
:1018100010F4407F204602D0FFF7CAFF04E000F03A
:10182000B9F8204600F03BF9257720680169C943E3
:10183000090716D4C168C943090712D46FF008011B
:101840000161042020772068C0698007204602D00B
:10185000FFF7AEFF04E000F09DF8204600F01FF90E
:10186000257720680169C943C90617D4C168C943EF
:10187000C90613D46FF01001016108202077206899
:10188000C06910F4407F204602D0FFF791FF04E0CA
:1018900000F080F8204600F002F925772068016901
:1018A000C943C90708D1C168C943C90704D1891E02
:1018B0000161204600F010F920680169C94309065A
:1018C00009D4C168C943090605D46FF080010161DC
:1018D0002046FFF741FE20680169C943490609D443
:1018E000C168C943490605D46FF040010161204633
:1018F00000F0F3F820680169C94389060BD4C16878
:10190000C943890607D46FF0200101612046BDE874
:101910007040FFF722BE70BD30B587B00446142179
:101920006846FEF78DFC174D2068002416490222F8
:101930000123A84210D1086840F010000860086830
:10194000694600F0100005904FF420608DE8150006
:101950000E48CDE9032311E0B0F1804F10D10868A3
:1019600040F0010008600868CDE9003200F0010095
:10197000CDE90430CDE9024269460548FEF7C8FFCB
:1019800007B030BD00000140303802400010024076
:1019900000000240704770B5044690F83C000D46C8
:1019A00001280DD0012684F83C60022084F83D0017
:1019B00042B1042A18D0082A2AD00C2A4DD139E085
:1019C000022070BD206800F023FC2068816941F08E
:1019D000080181612068816921F00401816120682A
:1019E00081692A69114311E0206800F03DFC2068FC
:1019F000816941F4006181612068816921F480611D
:101A00008161206881692A6941EA0221816124E0BB
:101A1000206800F057FC2068C16941F00801C161ED
:101A20002068C16921F00401C1612068C1692A6987
:101A3000114311E0206800F071FC2068C16941F495
:101A40000061C1612068C16921F48061C1612068C1
:101A5000C1692A6941EA0221C16184F83D60002020
:101A600084F83C0070BD10B5040003D094F83D002C
:101A700010B107E0012010BD002084F83C00204692
:101A800000F00CF8022084F83D00211D206800F0D1
:101A900053FB012084F83D00002010BD70477047C3
:101AA00010B504460068012200F092FB0949206845
:101AB000884203D1416C41F400414164206881684F
:101AC00001F00701062903D0016841F0010101601E
:101AD000002010BD0000014070477047FEE7000085
:101AE0002DE9F04186B014216846FEF7A9FB424873
:101AF0000024016841F080010160016801F080016B
:101B00000591016841F001010160016801F00101E6
:101B10000591016841F010010160016801F01001B8
:101B20000591016841F002010160016801F00201C4
:101B30000591016841F008010160016801F00801A8
:101B40000591016841F00401016000682B4F00F02D
:101B500004004FF4AC550590002229463846FEF7A4
:101B6000A6FFDFF89C8000224FF474414046FEF748
:101B70009EFF442000902348CDE901046946224895
:101B8000FEF7C6FE0095022601250396CDE9015415
:101B900069463846FEF7BCFEA802CDE900050320E1
:101BA000CDE9024069464046FEF7B2FEE802CDE9C3
:101BB0000004694640460294FEF7AAFE4FF47040C6
:101BC000CDE90005CDE9024669464046FEF7A0FE94
:101BD000002211460820FEF7DDFF0820FEF7CCFFAB
:101BE000002211461720FEF7D5FF1720FEF7C4FF8D
:101BF00006B0BDE8F081000030380240001002401D
:101C0000000C024000003110000002400948084961
:101C10000160002141608160C160016141618161B9
:101C20000162416281620A21C162FFF7BDBA000010
:101C3000003C00402400002010B596B000240F9412
:101C400010941194129413941C2168461494FEF776
:101C5000F7FA202107A8FEF7F3FA2248204901608D
:101C6000C821C0E9011443F26961C0E90314446169
:101C70008461FFF7BEFC4FF480500F900FA9194804
:101C8000FFF72BFD1748FFF7EEFE139413A9154835
:101C90001494FFF78DFC6020CDE9000402940394B6
:101CA00004940594002269460E480694FFF773FEDB
:101CB000042269460B48FFF76EFE079408940994C6
:101CC0004FF400500A94CDE90B4007A905480E9443
:101CD000FFF744FC0348FFF71FFE16B010BD0000DD
:101CE000000001407C00002010B58EB00024079455
:101CF000089409940A940B941C2168460C94FEF7EE
:101D00009FFA16484FF0804101605421C0E9011448
:101D100044F61F61C0E903148461FFF76AFC4FF4C5
:101D20008050079007A90D48FFF7D7FC0B48FFF735
:101D30009AFE0B940BA909480C94FFF739FC60201C
:101D4000CDE9000402940022694604480494FFF798
:101D500022FE0248FFF7E0FD0EB010BDBC000020DF
:101D600010B586B0002412480094019402940394A4
:101D700004940E49059401604021C0E9011446F223
:101D8000F541C0E903148461FFF733FC4FF4805040
:101D9000009069460648FFF7A0FC049404A9044893
:101DA0000594FFF705FC06B010BD000000040040DC
:101DB000FC000020FEE77047704700002DE9FF415E
:101DC00000208DF8000001221E4E97020190394636
:101DD0003046FEF76CFE1C4C052003906568FEF74C
:101DE000A3FF1A49B0FBF1F00399484303906068E0
:101DF0000399401B8842FAD3002239463046FEF749
:101E000056FE0124E5020AE001988DF80040401CCE
:101E1000019029463046FEF745FE0128F4D09DF892
:101E200000000028F5D00198FEF784FA9FED081B0A
:101E300053EC112BFEF70FFAFEF789FA04B0C0B28B
:101E4000BDE8F081000C0240001000E040420F00AD
:101E500052B81E85EB6172400148FFF727B90000B8
:101E60002400002010B5806B0021C187C186FFF7D8
:101E70001BF910BD10B5806B01684A6822F003029F
:101E80004A60416D41F010014165012180F8511017
:101E9000FFF70AF910BD10B5806BFFF7B4FA10BD5B
:101EA00010B5806BFFF743FB10BD70B50546846B22
:101EB000FEF702FE024628680068C0051BD42068B1
:101EC000416821F0200141602068416821F0030150
:101ED00041606421204600F03FF808B12020606591
:101EE0000020E087012084F85100606D18B1204681
:101EF000FFF7DAF870BD2046FFF784FA70BD70B5C1
:101F00000546846BFEF7D8FD024628680068C005C8
:101F10001ED42068416821F02001416064212046E0
:101F200000F03BF818B1606D40F02000606520685B
:101F3000416821F0030141600020E086E087012034
:101F400084F85100606D18B12046FFF7ADF870BD00
:101F50002046FFF7EBFA70BD38B504464068B0F58F
:101F6000827F0BD1A068B0F5004F02D0B0F5806F32
:101F700004D12068036823F0400303600B460092FD
:101F800000228021204600F018F8002804D0606D5F
:101F900040F020006065032038BD38B50B46009244
:101FA00004460022802100F008F8002804D0606D6B
:101FB00040F020006065032038BD2DE9F0411D464A
:101FC00017460E460446DDF8188008E0681C06D067
:101FD000FEF772FDA0EB0800A8420BD255B12068B5
:101FE000806836EA000030D00020B842EED10020F0
:101FF000BDE8F0812068416821F0E001416060683F
:10200000B0F5827F0BD1A068B0F5004F02D0B0F5DB
:10201000806F04D12068016821F040010160A06A4E
:10202000B0F5005F09D12068016821F4005101601A
:102030002068016841F400510160012084F85100DA
:10204000002084F850000320D2E70120CDE770473C
:10205000FEF738BD30B593B030216846FEF7F0F892
:1020600014210CA8FEF7ECF819480025016841F08E
:1020700080510160006800F080501190154801689F
:1020800041F4404101600068022400F44040119096
:1020900001200090000401908001CDE90640082055
:1020A00008904FF4A870099004200A900B9068469D
:1020B000FEF770FE0CA90F2081E83100E0020F90BE
:1020C000109002210CA8FEF797FD13B030BD000060
:1020D00040380240007000401048016841F470012F
:1020E00001600F48016841F0010101600C4A0021C4
:1020F0000832116002680B4B1A400260031D0A4A45
:102100001A60026822F48022026005480C300160E7
:1021100002495806803908607047000088ED00E0E9
:1021200000380240FFFFF6FE103000240148FFF7A0
:1021300040BB0000FC000020F0B502681D4C1E4DA5
:102140001E4E1F4F4FF0804CA04207D0604505D077
:10215000A84203D0B04201D0B84203D122F07003AC
:102160004A681A43A04210D060450ED0A8420CD055
:10217000B0420AD0B84208D0124B984205D0124B58
:10218000984202D0114B984203D122F44073CA689E
:102190001A434B6922F080021A4302608A68C262C5
:1021A0000A688262A04201D109690163012141618B
:1021B000F0BD0000000001400004004000080040A5
:1021C000000C004000400140004401400048014034
:1021D00010B501F01F010123046A8B409C43046287
:1021E000036A8A401343036210BD10B5846842EA53
:1021F000032224F47F440A432243826010BD826894
:1022000022F070020A4342F007018160704700002B
:1022100030B5026A22F001020262036A42688469F0
:1022200024F073050C682C4323F002058B682B43C4
:102230000C4DA84206D123F00805CB6843EA0503FC
:1022400023F0040307D14D6922F4407245EA0205E8
:102250008A6942EA05024260846149684163036217
:1022600030BD00000000014030B5026A22F01002CB
:102270000262026A436884690D6824F4E64444EA11
:1022800005248D6822F0200242EA05120C4DA84276
:1022900006D1CD6822F0800242EA051222F0400207
:1022A00007D14D6923F4406343EA85038D6943EA0E
:1022B00085034360846149688163026230BD000028
:1022C0000000014030B5026A22F480720262036AA3
:1022D0004268C46923F4007324F073050C682C432E
:1022E0008D6843EA05230C4DA84206D1CD6823F43E
:1022F000006343EA052323F4806307D14D6922F488
:10230000405242EA05128D6942EA05124260C461F8
:102310004968C163036230BD0000014030B5026A04
:1023200022F480520262036A4268C4690D6824F490
:10233000E64444EA05248D6823F4005343EA053358
:10234000064DA84204D14D6922F4804242EA85122A
:102350004260C46149680164036230BD000001400D
:1023600010B5046A036A23F001030362836923F052
:10237000F00343EA021324F00A020A438361026273
:1023800010BD10B5036A23F0100303628469036A69
:1023900024F4704444EA023223F0A00343EA01111A
:1023A0008261016210BDFEE70907090E002804DB07
:1023B00000F1E02080F80014704700F00F0000F1F9
:1023C000E02080F8141D704702E008C8121F08C101
:1023D000002AFAD170477047002001E001C1121FA6
:1023E000002AFBD170470000822800D982200649CC
:1023F000888100EB80004FF4167101EB4000034927
:1024000080B209684863704700000020BC000020CB
:1024100070B5054600244FF4FA760DE01E20FFF754
:10242000E3FF3046FEF754FA7820FFF7DDFF304631
:10243000FEF74EFA641CE4B2AC42EFD370BD00006C
:1024400008B5FEF747FBFFF705FEFFF749FB2248FB
:10245000016841F4001101600068002200F40010DE
:10246000009011460B20FEF795FB0B20FEF784FB36
:10247000FFF7E2FBFFF738FCFFF7C8FBFFF770FC44
:10248000FEF766F8062215491548FEF747FF14487F
:102490005830FFF741FA12485830FFF7FBF8104860
:1024A00000215830FFF7FCFA0D4804215830FFF79F
:1024B000F7FA0B489830FFF72FFA09489830FFF7E2
:1024C000E9F8074800219830FFF7EAFA0448BDE828
:1024D0000840D830FFF7F0B8303802400E00002036
:1024E000240000202DE9F0414FF48041264C8D104E
:1024F0004E104F00062845D2DFE800F044030914CF
:10250000242F01222046FEF7D2FA00220FE00022FB
:102510002046FEF7CCFA002229462046FEF7C7FAED
:10252000002224E000222046FEF7C1FA01222946BB
:102530002046FEF7BCFA002231462046FEF7B7FAE5
:10254000002219E000222046FEF7B1FA00222946B7
:102550002046FEF7ACFA0122EEE701222046FEF704
:10256000A6FA012229462046FEF7A1FA01223146A9
:102570002046FEF79CFA012239462046BDE8F0418C
:10258000FEF795BA0022BDE7000C02402DE9F041AC
:1025900088460546002446E00122254F9603314631
:1025A0003846FEF784FA4046FEF792F9002231469B
:1025B0003846FEF77CFA4046FEF78AF90122D60338
:1025C00031463846FEF773FA4046FEF781F900229D
:1025D00031463846FEF76BFA4046FEF779F901229C
:1025E000160331463846FEF762FA4046FEF770F9A8
:1025F000002231463846FEF75AFA4046FEF768F99F
:102600000122560331463846FEF751FA4046FEF79E
:102610005FF9002231463846FEF749FA4046FEF798
:1026200057F9641CE4B2AC42B6D3BDE8F0810000B7
:10263000000C024070B5054600244FF496760DE07C
:102640000520FFF74FFF3046FEF742F90020FFF765
:1026500049FF3046FEF73CF9641CE4B2AC42EFD3CC
:1026600070BD000070B5084D044601228021284647
:10267000FEF71DFA0022A9152846FEF718FA0348AE
:102680000068446370BD0000001002407C00002020
:1026900070B5084D0446002280212846FEF707FA4F
:1026A000012211022846FEF702FA0348006844633B
:1026B00070BD0000001002407C00002010B5064CE8
:1026C000002280212046FEF7F2F90022A1152046C3
:1026D000BDE81040FEF7EBB900100240FFF7B0FE76
:1026E0000020404D01462954401CC0B20628FAD3B0
:1026F00000F0CCF80320FFF78BFE3B4C4FF4C86092
:10270000216848630420FFF795FF364E40F2762893
:1027100040F24C4A0E3E4FF4FA69FFF74FFBB0709F
:1027200069782A7841EA0222F280E978AB7841EAB6
:10273000032131816B792F7943EA0723738137783D
:1027400097B30A2803D800F0A1F800203DE062B357
:1027500059B3481E8B2802D2B0880A3805E0A1F28E
:1027600055118B2902D2B0880A30B080B188484612
:10277000814201D9B08003E0414501D2A6F804802E
:102780002768B1887963511EDB2904D2504600F0D6
:102790008DF8012019E0A2F2A512DB2A06D25046DC
:1027A00000F07BF8032010E015E010E042F6E06155
:1027B0008B4203D900F058F8022006E041F288313C
:1027C0008B42C0D200F059F80420FFF78BFE322074
:1027D000FEF77EF8A1E732210420FFF7D7FE00F0D4
:1027E00055F89AE70E000020BC00002070B5084D97
:1027F0000446012291022846FEF759F90022A91445
:102800002846FEF754F903480068846370BD000051
:10281000001002407C00002070B5084D04460022E4
:102820004FF480612846FEF742F901221103284641
:10283000FEF73DF902480068846370BD0010024055
:102840007C00002010B5074C00224FF48061204628
:10285000FEF72DF90022A1142046BDE81040FEF736
:1028600026B900000010024010B50446FFF710FF23
:102870002046BDE81040FFF7CFBF10B50446FFF774
:10288000F1FE2046BDE81040FFF7B0BF10B5FFF7DE
:1028900015FFBDE81040FFF7D5BF10B50446FFF7A0
:1028A000F7FE2046BDE81040FFF7A0BF10B5044674
:1028B000FFF7D8FE2046BDE81040FFF7ADBF000689
:1028C00010160006101600000000000000000102B3
:1028D0000304060708090000F8280008000000208B
:1028E00024000000C82300081C2900082400002040
:1028F0007C050000D823000800000000400600000E
:1029000000000000000000000000000001000000C6
:0C29100010000000000000000024F40093
:040000050800019955
:00000001FF
